{
  "contractName": "Game",
  "abi": [
    {
      "anonymous": false,
      "inputs": [
        {
          "indexed": false,
          "internalType": "address",
          "name": "winner",
          "type": "address"
        },
        {
          "indexed": false,
          "internalType": "uint256",
          "name": "winning",
          "type": "uint256"
        }
      ],
      "name": "AddressThatLost",
      "type": "event"
    },
    {
      "anonymous": false,
      "inputs": [
        {
          "indexed": false,
          "internalType": "string",
          "name": "test",
          "type": "string"
        },
        {
          "indexed": false,
          "internalType": "address",
          "name": "winner",
          "type": "address"
        },
        {
          "indexed": false,
          "internalType": "uint256",
          "name": "winning",
          "type": "uint256"
        }
      ],
      "name": "CalculatedWinnings",
      "type": "event"
    },
    {
      "inputs": [
        {
          "internalType": "address",
          "name": "",
          "type": "address"
        }
      ],
      "name": "currentAddressesInContract",
      "outputs": [
        {
          "internalType": "uint256",
          "name": "",
          "type": "uint256"
        }
      ],
      "stateMutability": "view",
      "type": "function",
      "constant": true
    },
    {
      "inputs": [],
      "name": "priceOfUrl",
      "outputs": [
        {
          "internalType": "uint256",
          "name": "",
          "type": "uint256"
        }
      ],
      "stateMutability": "view",
      "type": "function",
      "constant": true
    },
    {
      "inputs": [],
      "name": "temp",
      "outputs": [
        {
          "internalType": "bytes",
          "name": "",
          "type": "bytes"
        }
      ],
      "stateMutability": "view",
      "type": "function",
      "constant": true
    },
    {
      "inputs": [],
      "name": "initialize",
      "outputs": [],
      "stateMutability": "payable",
      "type": "function",
      "payable": true
    },
    {
      "inputs": [
        {
          "internalType": "bytes",
          "name": "input",
          "type": "bytes"
        }
      ],
      "name": "convertToUint",
      "outputs": [
        {
          "internalType": "uint256",
          "name": "",
          "type": "uint256"
        }
      ],
      "stateMutability": "pure",
      "type": "function",
      "constant": true
    },
    {
      "inputs": [
        {
          "internalType": "uint256",
          "name": "stake",
          "type": "uint256"
        }
      ],
      "name": "GuessIfEven",
      "outputs": [],
      "stateMutability": "payable",
      "type": "function",
      "payable": true
    }
  ],
  "bytecode": "0x608060405234801561001057600080fd5b50610884806100206000396000f3fe6080604052600436106100555760003560e01c806331ed2bd41461005a578063419d6db6146100bf57806343d3b1be146100ed578063673402e5146101185780636865856c146101a85780638129fc1c14610284575b600080fd5b34801561006657600080fd5b506100a96004803603602081101561007d57600080fd5b81019080803573ffffffffffffffffffffffffffffffffffffffff16906020019092919050505061028e565b6040518082815260200191505060405180910390f35b6100eb600480360360208110156100d557600080fd5b81019080803590602001909291905050506102a6565b005b3480156100f957600080fd5b50610102610349565b6040518082815260200191505060405180910390f35b34801561012457600080fd5b5061012d61034f565b6040518080602001828103825283818151815260200191508051906020019080838360005b8381101561016d578082015181840152602081019050610152565b50505050905090810190601f16801561019a5780820380516001836020036101000a031916815260200191505b509250505060405180910390f35b3480156101b457600080fd5b5061026e600480360360208110156101cb57600080fd5b81019080803590602001906401000000008111156101e857600080fd5b8201836020820111156101fa57600080fd5b8035906020019184600183028401116401000000008311171561021c57600080fd5b91908080601f016020809104026020016040519081016040528093929190818152602001838380828437600081840152601f19601f8201169050808301925050505050505091929192905050506103ed565b6040518082815260200191505060405180910390f35b61028c61043c565b005b60346020528060005260406000206000915090505481565b6000600282816102b257fe5b0614156102c7576102c2816105c8565b610346565b6000600a90506000600282816102d957fe5b0614156102ee576102e9826105c8565b610344565b7f5bbdbd011d4cf68ea520999af505d45cd93eacd8d69f39641356ea2de747f7f13383604051808373ffffffffffffffffffffffffffffffffffffffff1681526020018281526020019250505060405180910390a15b505b50565b60365481565b60358054600181600116156101000203166002900480601f0160208091040260200160405190810160405280929190818152602001828054600181600116156101000203166002900480156103e55780601f106103ba576101008083540402835291602001916103e5565b820191906000526020600020905b8154815290600101906020018083116103c857829003601f168201915b505050505081565b6000806000905060005b83518110156104325783818151811061040c57fe5b602001015160f81c60f81b60f81c60ff16600883901b01915080806001019150506103f7565b5080915050919050565b600060019054906101000a900460ff168061045b575061045a61063d565b5b80610471575060008054906101000a900460ff16155b6104c6576040517f08c379a000000000000000000000000000000000000000000000000000000000815260040180806020018281038252602e8152602001806107ce602e913960400191505060405180910390fd5b60008060019054906101000a900460ff161590508015610516576001600060016101000a81548160ff02191690831515021790555060016000806101000a81548160ff0219169083151502179055505b34603460003373ffffffffffffffffffffffffffffffffffffffff1673ffffffffffffffffffffffffffffffffffffffff1681526020019081526020016000208190555033603360006101000a81548173ffffffffffffffffffffffffffffffffffffffff021916908373ffffffffffffffffffffffffffffffffffffffff1602179055506105a4346102a6565b80156105c55760008060016101000a81548160ff0219169083151502179055505b50565b60006064603360009054906101000a900473ffffffffffffffffffffffffffffffffffffffff1673ffffffffffffffffffffffffffffffffffffffff1631838161060e57fe5b04029050603281111561062c5761062760018302610654565b610639565b61063860018302610654565b5b5050565b6000803090506000813b9050600081149250505090565b7f2eedbe3480ad2bd28011b78381d6fe1c31b225ec843c2ebda8d94679baf58dab338260405180806020018473ffffffffffffffffffffffffffffffffffffffff168152602001838152602001828103825260048152602001807f7465737400000000000000000000000000000000000000000000000000000000815250602001935050505060405180910390a16000603360009054906101000a900473ffffffffffffffffffffffffffffffffffffffff16905060008173ffffffffffffffffffffffffffffffffffffffff168360405180600001905060006040518083038185875af1925050503d8060008114610769576040519150601f19603f3d011682016040523d82523d6000602084013e61076e565b606091505b50509050806107c8576040517f08c379a00000000000000000000000000000000000000000000000000000000081526004018080602001828103825260538152602001806107fc6053913960600191505060405180910390fd5b50505056fe436f6e747261637420696e7374616e63652068617320616c7265616479206265656e20696e697469616c697a65645472616e73666572206661696c65642c20746865726520776173206e6f7420656e6f7567682045544820696e207468697320636f6e74726163742c20796f75206469646e27742077696e20616e797468696e67a26469706673582212206a398f6548c1a61ba613d8e8afa2dee39c88954dc0d455fbb1526966182a450164736f6c634300060c0033",
  "immutableReferences": {},
  "source": "pragma solidity >=0.6.12;\r\n//import \"github.com/provable-things/ethereum-api/provableAPI_0.6.sol\";\r\nimport \"@openzeppelin/upgrades-core/contracts/Initializable.sol\";\r\n\r\ncontract Game is Initializable {\r\n    address _currentAddress;\r\n    mapping(address => uint256) public currentAddressesInContract;\r\n    bytes public temp;\r\n    uint256 public priceOfUrl;\r\n\r\n    function initialize() public payable initializer {\r\n        //require(msg.value >= 1 ether, \"Not enough Ether\");\r\n        currentAddressesInContract[msg.sender] = msg.value;\r\n        _currentAddress = msg.sender;\r\n        GuessIfEven(msg.value);\r\n    }\r\n\r\n    event CalculatedWinnings(string test, address winner, uint256 winning);\r\n    event AddressThatLost(address winner, uint256 winning);\r\n\r\n    function convertToUint(bytes memory input) public pure returns (uint256) {\r\n        uint256 res = 0;\r\n        for (uint256 i = 0; i < input.length; i++)\r\n            res = (res << 8) + uint256(uint8(input[i]));\r\n        return res;\r\n    }\r\n\r\n    function GuessIfEven(uint256 stake) public payable {\r\n        if (stake % 2 == 0) {\r\n            CalculateWinning(stake);\r\n        } else {\r\n            //  GetTemp();\r\n            //bytes memory res = 10;\r\n            //uint256 currentTemp = convertToUint(10);\r\n            uint256 currentTemp = 10;\r\n            if (currentTemp % 2 == 0) {\r\n                // Second chance at winning the game.\r\n                CalculateWinning(stake);\r\n            } else {\r\n                emit AddressThatLost(msg.sender, stake);\r\n            }\r\n        }\r\n    }\r\n\r\n    function CalculateWinning(uint256 stake) private {\r\n        uint256 percentage = (stake / _currentAddress.balance) * 100;\r\n        if (percentage > 50) {\r\n            SendRewardToAddress(stake * 1); //TODO: Change this value when amount of people in contract is > 1.\r\n        } else {\r\n            SendRewardToAddress(stake * 1); //TODO: Change this value when amount of people in contract is > 1.\r\n        }\r\n    }\r\n\r\n    function SendRewardToAddress(uint256 winning) private {\r\n        emit CalculatedWinnings(\"test\", msg.sender, winning);\r\n        address payable sendAbleAddress = payable(_currentAddress);\r\n        (bool transferSucceeded, ) = sendAbleAddress.call{value: winning}(\"\");\r\n        require(\r\n            transferSucceeded,\r\n            \"Transfer failed, there was not enough ETH in this contract, you didn't win anything\"\r\n        );\r\n    }\r\n\r\n    // function __callback(\r\n    //     bytes32,\r\n    //     /* myid prevent warning*/\r\n    //     string memory result\r\n    // ) public override {\r\n    //     if (msg.sender != provable_cbAddress()) revert();\r\n    //     temp = bytes(result);\r\n    // }\r\n\r\n    // function GetTemp() public payable {\r\n    //     priceOfUrl = provable_getPrice(\"URL\");\r\n    //     require(\r\n    //         address(this).balance >= priceOfUrl,\r\n    //         \"please add some ETH to cover for the query fee\"\r\n    //     );\r\n    //     provable_query(\r\n    //         \"URL\",\r\n    //         \"json(http://weerlive.nl/api/json-data-10min.php?key=demo&locatie=Amsterdam).liveweer[0].temp\"\r\n    //     );\r\n    // }\r\n}\r\n",
  "sourcePath": "C:/Users/MutluB/Documents/VSCode Clone/BC3_Mutlu/PD-09/contracts/Game.sol",
  "compiler": {
    "name": "solc",
    "version": "0.6.12+commit.27d51765.Emscripten.clang"
  },
  "schemaVersion": "3.3.2",
  "updatedAt": "2021-01-04T20:29:06.841Z",
  "networkType": "ethereum",
  "devdoc": {
    "kind": "dev",
    "methods": {},
    "version": 1
  },
  "userdoc": {
    "kind": "user",
    "methods": {},
    "version": 1
  }
}