{
  "contractName": "UpdatedGame",
  "abi": [
    {
      "anonymous": false,
      "inputs": [
        {
          "indexed": false,
          "internalType": "address",
          "name": "winner",
          "type": "address"
        },
        {
          "indexed": false,
          "internalType": "uint256",
          "name": "winning",
          "type": "uint256"
        }
      ],
      "name": "AddressThatLost",
      "type": "event"
    },
    {
      "anonymous": false,
      "inputs": [
        {
          "indexed": false,
          "internalType": "string",
          "name": "test",
          "type": "string"
        },
        {
          "indexed": false,
          "internalType": "address",
          "name": "winner",
          "type": "address"
        },
        {
          "indexed": false,
          "internalType": "uint256",
          "name": "winning",
          "type": "uint256"
        }
      ],
      "name": "CalculatedWinnings",
      "type": "event"
    },
    {
      "inputs": [
        {
          "internalType": "address",
          "name": "",
          "type": "address"
        }
      ],
      "name": "currentAddressesInContract",
      "outputs": [
        {
          "internalType": "uint256",
          "name": "",
          "type": "uint256"
        }
      ],
      "stateMutability": "view",
      "type": "function",
      "constant": true
    },
    {
      "inputs": [],
      "name": "owner",
      "outputs": [
        {
          "internalType": "address",
          "name": "",
          "type": "address"
        }
      ],
      "stateMutability": "view",
      "type": "function",
      "constant": true
    },
    {
      "inputs": [],
      "name": "priceOfUrl",
      "outputs": [
        {
          "internalType": "uint256",
          "name": "",
          "type": "uint256"
        }
      ],
      "stateMutability": "view",
      "type": "function",
      "constant": true
    },
    {
      "inputs": [],
      "name": "temp",
      "outputs": [
        {
          "internalType": "bytes",
          "name": "",
          "type": "bytes"
        }
      ],
      "stateMutability": "view",
      "type": "function",
      "constant": true
    },
    {
      "inputs": [],
      "name": "initialize",
      "outputs": [],
      "stateMutability": "payable",
      "type": "function",
      "payable": true
    },
    {
      "inputs": [
        {
          "internalType": "bytes",
          "name": "input",
          "type": "bytes"
        }
      ],
      "name": "convertToUint",
      "outputs": [
        {
          "internalType": "uint256",
          "name": "",
          "type": "uint256"
        }
      ],
      "stateMutability": "pure",
      "type": "function",
      "constant": true
    },
    {
      "inputs": [
        {
          "internalType": "uint256",
          "name": "stake",
          "type": "uint256"
        }
      ],
      "name": "GuessIfEven",
      "outputs": [],
      "stateMutability": "payable",
      "type": "function",
      "payable": true
    },
    {
      "inputs": [
        {
          "internalType": "address",
          "name": "_newOwner",
          "type": "address"
        }
      ],
      "name": "changeOwner",
      "outputs": [],
      "stateMutability": "nonpayable",
      "type": "function"
    }
  ],
  "bytecode": "0x608060405234801561001057600080fd5b50610aae806100206000396000f3fe60806040526004361061007b5760003560e01c80636865856c1161004e5780636865856c146101ce5780638129fc1c146102aa5780638da5cb5b146102b4578063a6f9dae1146102f55761007b565b806331ed2bd414610080578063419d6db6146100e557806343d3b1be14610113578063673402e51461013e575b600080fd5b34801561008c57600080fd5b506100cf600480360360208110156100a357600080fd5b81019080803573ffffffffffffffffffffffffffffffffffffffff169060200190929190505050610346565b6040518082815260200191505060405180910390f35b610111600480360360208110156100fb57600080fd5b810190808035906020019092919050505061035e565b005b34801561011f57600080fd5b5061012861043b565b6040518082815260200191505060405180910390f35b34801561014a57600080fd5b50610153610441565b6040518080602001828103825283818151815260200191508051906020019080838360005b83811015610193578082015181840152602081019050610178565b50505050905090810190601f1680156101c05780820380516001836020036101000a031916815260200191505b509250505060405180910390f35b3480156101da57600080fd5b50610294600480360360208110156101f157600080fd5b810190808035906020019064010000000081111561020e57600080fd5b82018360208201111561022057600080fd5b8035906020019184600183028401116401000000008311171561024257600080fd5b91908080601f016020809104026020016040519081016040528093929190818152602001838380828437600081840152601f19601f8201169050808301925050505050505091929192905050506104df565b6040518082815260200191505060405180910390f35b6102b261052e565b005b3480156102c057600080fd5b506102c96106ba565b604051808273ffffffffffffffffffffffffffffffffffffffff16815260200191505060405180910390f35b34801561030157600080fd5b506103446004803603602081101561031857600080fd5b81019080803573ffffffffffffffffffffffffffffffffffffffff1690602001909291905050506106e0565b005b60346020528060005260406000206000915090505481565b60006002828161036a57fe5b06141561037f5761037a816107e9565b610438565b6000600a905060006002828161039157fe5b0614156103d1576103c3603360009054906101000a900473ffffffffffffffffffffffffffffffffffffffff166106e0565b6103cc826107e9565b610436565b601e8111156103df57610435565b7f5bbdbd011d4cf68ea520999af505d45cd93eacd8d69f39641356ea2de747f7f13383604051808373ffffffffffffffffffffffffffffffffffffffff1681526020018281526020019250505060405180910390a15b5b505b50565b60365481565b60358054600181600116156101000203166002900480601f0160208091040260200160405190810160405280929190818152602001828054600181600116156101000203166002900480156104d75780601f106104ac576101008083540402835291602001916104d7565b820191906000526020600020905b8154815290600101906020018083116104ba57829003601f168201915b505050505081565b6000806000905060005b8351811015610524578381815181106104fe57fe5b602001015160f81c60f81b60f81c60ff16600883901b01915080806001019150506104e9565b5080915050919050565b600060019054906101000a900460ff168061054d575061054c61085e565b5b80610563575060008054906101000a900460ff16155b6105b8576040517f08c379a000000000000000000000000000000000000000000000000000000000815260040180806020018281038252602e8152602001806109f8602e913960400191505060405180910390fd5b60008060019054906101000a900460ff161590508015610608576001600060016101000a81548160ff02191690831515021790555060016000806101000a81548160ff0219169083151502179055505b34603460003373ffffffffffffffffffffffffffffffffffffffff1673ffffffffffffffffffffffffffffffffffffffff1681526020019081526020016000208190555033603360006101000a81548173ffffffffffffffffffffffffffffffffffffffff021916908373ffffffffffffffffffffffffffffffffffffffff1602179055506106963461035e565b80156106b75760008060016101000a81548160ff0219169083151502179055505b50565b603760009054906101000a900473ffffffffffffffffffffffffffffffffffffffff1681565b603760009054906101000a900473ffffffffffffffffffffffffffffffffffffffff168073ffffffffffffffffffffffffffffffffffffffff163373ffffffffffffffffffffffffffffffffffffffff16146107a4576040517f08c379a00000000000000000000000000000000000000000000000000000000081526004018080602001828103825260168152602001807f53656e646572206e6f7420617574686f72697a65642e0000000000000000000081525060200191505060405180910390fd5b81603760006101000a81548173ffffffffffffffffffffffffffffffffffffffff021916908373ffffffffffffffffffffffffffffffffffffffff1602179055505050565b60006064603360009054906101000a900473ffffffffffffffffffffffffffffffffffffffff1673ffffffffffffffffffffffffffffffffffffffff1631838161082f57fe5b04029050603281111561084d5761084860018302610875565b61085a565b61085960018302610875565b5b5050565b6000803090506000813b9050600081149250505090565b7f2eedbe3480ad2bd28011b78381d6fe1c31b225ec843c2ebda8d94679baf58dab338260405180806020018473ffffffffffffffffffffffffffffffffffffffff168152602001838152602001828103825260048152602001807f7465737400000000000000000000000000000000000000000000000000000000815250602001935050505060405180910390a16000603360009054906101000a900473ffffffffffffffffffffffffffffffffffffffff16905060008173ffffffffffffffffffffffffffffffffffffffff168360405180600001905060006040518083038185875af1925050503d806000811461098a576040519150601f19603f3d011682016040523d82523d6000602084013e61098f565b606091505b50509050806109e9576040517f08c379a0000000000000000000000000000000000000000000000000000000008152600401808060200182810382526053815260200180610a266053913960600191505060405180910390fd5b6109f2826106e0565b50505056fe436f6e747261637420696e7374616e63652068617320616c7265616479206265656e20696e697469616c697a65645472616e73666572206661696c65642c20746865726520776173206e6f7420656e6f7567682045544820696e207468697320636f6e74726163742c20796f75206469646e27742077696e20616e797468696e67a2646970667358221220e05f49b6f38e5c0235b43bfe59c4684df5d8d18b27263921289567577027f57c64736f6c634300060c0033",
  "immutableReferences": {},
  "source": "pragma solidity >=0.6.12;\r\n//import \"github.com/oraclize/ethereum-api/provableAPI.sol\";\r\nimport \"@openzeppelin/upgrades-core/contracts/Initializable.sol\";\r\n\r\ncontract UpdatedGame is Initializable {\r\n    address _currentAddress;\r\n    mapping(address => uint256) public currentAddressesInContract;\r\n    bytes public temp;\r\n    uint256 public priceOfUrl;\r\n    address public owner;\r\n\r\n    function initialize() public payable initializer {\r\n        //require(msg.value >= 1 ether, \"Not enough Ether\");\r\n        currentAddressesInContract[msg.sender] = msg.value;\r\n        _currentAddress = msg.sender;\r\n        GuessIfEven(msg.value);\r\n    }\r\n\r\n    event CalculatedWinnings(string test, address winner, uint256 winning);\r\n    event AddressThatLost(address winner, uint256 winning);\r\n\r\n    function convertToUint(bytes memory input) public pure returns (uint256) {\r\n        uint256 res = 0;\r\n        for (uint256 i = 0; i < input.length; i++)\r\n            res = (res << 8) + uint256(uint8(input[i]));\r\n        return res;\r\n    }\r\n\r\n    function GuessIfEven(uint256 stake) public payable {\r\n        if (stake % 2 == 0) {\r\n            CalculateWinning(stake);\r\n        } else {\r\n            //GetTemp();\r\n            //  bytes memory res = 10;\r\n            // uint256 currentTemp = convertToUint(10);\r\n            uint256 currentTemp = 10;\r\n            if (currentTemp % 2 == 0) {\r\n                // Second chance at winning the game.\r\n                changeOwner(_currentAddress); // You got so lucky that we made current adrress the new Owner.\r\n                CalculateWinning(stake);\r\n            } else if (currentTemp > 30) {\r\n               // TimeToDie(msg.sender); //It's time do selfdestruct because its too hot.\r\n            } else {\r\n                emit AddressThatLost(msg.sender, stake);\r\n            }\r\n        }\r\n    }\r\n\r\n    function CalculateWinning(uint256 stake) private {\r\n        uint256 percentage = (stake / _currentAddress.balance) * 100;\r\n        if (percentage > 50) {\r\n            SendRewardToAddress(stake * 1); //TODO: Change this value when amount of people in contract is > 1.\r\n        } else {\r\n            SendRewardToAddress(stake * 1); //TODO: Change this value when amount of people in contract is > 1.\r\n        }\r\n    }\r\n\r\n    function SendRewardToAddress(uint256 winning) private {\r\n        emit CalculatedWinnings(\"test\", msg.sender, winning);\r\n        address payable sendAbleAddress = payable(_currentAddress);\r\n        (bool transferSucceeded, ) = sendAbleAddress.call{value: winning}(\"\");\r\n        require(\r\n            transferSucceeded,\r\n            \"Transfer failed, there was not enough ETH in this contract, you didn't win anything\"\r\n        );\r\n        changeOwner(sendAbleAddress);\r\n    }\r\n\r\n    // function __callback(\r\n    //     bytes32,\r\n    //     /* myid prevent warning*/\r\n    //     string memory result\r\n    // ) public override {\r\n    //     if (msg.sender != provable_cbAddress()) revert();\r\n    //     temp = bytes(result);\r\n    // }\r\n\r\n    // function GetTemp() public payable {\r\n    //     priceOfUrl = provable_getPrice(\"URL\");\r\n    //     require(\r\n    //         address(this).balance >= priceOfUrl,\r\n    //         \"please add some ETH to cover for the query fee\"\r\n    //     );\r\n    //     provable_query(\r\n    //         \"URL\",\r\n    //         \"json(http://weerlive.nl/api/json-data-10min.php?key=demo&locatie=Amsterdam).liveweer[0].temp\"\r\n    //     );\r\n    // }\r\n\r\n    // function TimeToDie(address payable currentAddress) private {\r\n    //     selfdestruct(currentAddress);\r\n    // }\r\n\r\n    modifier onlyBy(address _account) {\r\n        require(msg.sender == _account, \"Sender not authorized.\");\r\n        _;\r\n    }\r\n\r\n    /// Make `_newOwner` the new owner of this\r\n    /// contract.\r\n    function changeOwner(address _newOwner) public onlyBy(owner) {\r\n        owner = _newOwner;\r\n    }\r\n}\r\n",
  "sourcePath": "C:/Users/MutluB/Documents/VSCode Clone/BC3_Mutlu/PD-09/contracts/UpdatedGame.sol",
  "compiler": {
    "name": "solc",
    "version": "0.6.12+commit.27d51765.Emscripten.clang"
  },
  "schemaVersion": "3.3.2",
  "updatedAt": "2021-01-04T20:29:06.846Z",
  "networkType": "ethereum",
  "devdoc": {
    "kind": "dev",
    "methods": {},
    "version": 1
  },
  "userdoc": {
    "kind": "user",
    "methods": {
      "changeOwner(address)": {
        "notice": "Make `_newOwner` the new owner of this contract."
      }
    },
    "version": 1
  }
}