{
  "contractName": "Game",
  "abi": [
    {
      "inputs": [],
      "stateMutability": "payable",
      "type": "constructor",
      "payable": true
    },
    {
      "anonymous": false,
      "inputs": [
        {
          "indexed": false,
          "internalType": "address",
          "name": "winner",
          "type": "address"
        },
        {
          "indexed": false,
          "internalType": "uint256",
          "name": "winning",
          "type": "uint256"
        }
      ],
      "name": "AddressThatLost",
      "type": "event"
    },
    {
      "anonymous": false,
      "inputs": [
        {
          "indexed": false,
          "internalType": "string",
          "name": "test",
          "type": "string"
        },
        {
          "indexed": false,
          "internalType": "address",
          "name": "winner",
          "type": "address"
        },
        {
          "indexed": false,
          "internalType": "uint256",
          "name": "winning",
          "type": "uint256"
        }
      ],
      "name": "CalculatedWinnings",
      "type": "event"
    },
    {
      "inputs": [
        {
          "internalType": "address",
          "name": "",
          "type": "address"
        }
      ],
      "name": "currentAddressesInContract",
      "outputs": [
        {
          "internalType": "uint256",
          "name": "",
          "type": "uint256"
        }
      ],
      "stateMutability": "view",
      "type": "function",
      "constant": true
    },
    {
      "inputs": [
        {
          "internalType": "uint256",
          "name": "stake",
          "type": "uint256"
        }
      ],
      "name": "GuessIfEven",
      "outputs": [],
      "stateMutability": "payable",
      "type": "function",
      "payable": true
    }
  ],
  "bytecode": "0x6080604052670de0b6b3a7640000341015610082576040517f08c379a00000000000000000000000000000000000000000000000000000000081526004018080602001828103825260108152602001807f4e6f7420656e6f7567682045746865720000000000000000000000000000000081525060200191505060405180910390fd5b34600160003373ffffffffffffffffffffffffffffffffffffffff1673ffffffffffffffffffffffffffffffffffffffff16815260200190815260200160002081905550336000806101000a81548173ffffffffffffffffffffffffffffffffffffffff021916908373ffffffffffffffffffffffffffffffffffffffff1602179055506101153461011a60201b60201c565b610391565b60006002828161012657fe5b0614156101415761013c8161019a60201b60201c565b610197565b7f5bbdbd011d4cf68ea520999af505d45cd93eacd8d69f39641356ea2de747f7f13382604051808373ffffffffffffffffffffffffffffffffffffffff1681526020018281526020019250505060405180910390a15b50565b6000606460008054906101000a900473ffffffffffffffffffffffffffffffffffffffff1673ffffffffffffffffffffffffffffffffffffffff163183816101de57fe5b040290506032811115610202576101fd6001830261021960201b60201c565b610215565b6102146001830261021960201b60201c565b5b5050565b7f2eedbe3480ad2bd28011b78381d6fe1c31b225ec843c2ebda8d94679baf58dab338260405180806020018473ffffffffffffffffffffffffffffffffffffffff168152602001838152602001828103825260048152602001807f7465737400000000000000000000000000000000000000000000000000000000815250602001935050505060405180910390a160008060009054906101000a900473ffffffffffffffffffffffffffffffffffffffff16905060008173ffffffffffffffffffffffffffffffffffffffff168360405180600001905060006040518083038185875af1925050503d806000811461032d576040519150601f19603f3d011682016040523d82523d6000602084013e610332565b606091505b505090508061038c576040517f08c379a00000000000000000000000000000000000000000000000000000000081526004018080602001828103825260538152602001806107676053913960600191505060405180910390fd5b505050565b6103c7806103a06000396000f3fe6080604052600436106100295760003560e01c806331ed2bd41461002e578063419d6db614610093575b600080fd5b34801561003a57600080fd5b5061007d6004803603602081101561005157600080fd5b81019080803573ffffffffffffffffffffffffffffffffffffffff1690602001909291905050506100c1565b6040518082815260200191505060405180910390f35b6100bf600480360360208110156100a957600080fd5b81019080803590602001909291905050506100d9565b005b60016020528060005260406000206000915090505481565b6000600282816100e557fe5b0614156100fa576100f581610153565b610150565b7f5bbdbd011d4cf68ea520999af505d45cd93eacd8d69f39641356ea2de747f7f13382604051808373ffffffffffffffffffffffffffffffffffffffff1681526020018281526020019250505060405180910390a15b50565b6000606460008054906101000a900473ffffffffffffffffffffffffffffffffffffffff1673ffffffffffffffffffffffffffffffffffffffff1631838161019757fe5b0402905060328111156101b5576101b0600183026101c6565b6101c2565b6101c1600183026101c6565b5b5050565b7f2eedbe3480ad2bd28011b78381d6fe1c31b225ec843c2ebda8d94679baf58dab338260405180806020018473ffffffffffffffffffffffffffffffffffffffff168152602001838152602001828103825260048152602001807f7465737400000000000000000000000000000000000000000000000000000000815250602001935050505060405180910390a160008060009054906101000a900473ffffffffffffffffffffffffffffffffffffffff16905060008173ffffffffffffffffffffffffffffffffffffffff168360405180600001905060006040518083038185875af1925050503d80600081146102da576040519150601f19603f3d011682016040523d82523d6000602084013e6102df565b606091505b5050905080610339576040517f08c379a000000000000000000000000000000000000000000000000000000000815260040180806020018281038252605381526020018061033f6053913960600191505060405180910390fd5b50505056fe5472616e73666572206661696c65642c20746865726520776173206e6f7420656e6f7567682045544820696e207468697320636f6e74726163742c20796f75206469646e27742077696e20616e797468696e67a2646970667358221220c6dfdc1f3c6bff0f16f4e9b1b2156679c36ddd082f1890cfaba8d81981f19df864736f6c634300070000335472616e73666572206661696c65642c20746865726520776173206e6f7420656e6f7567682045544820696e207468697320636f6e74726163742c20796f75206469646e27742077696e20616e797468696e67",
  "immutableReferences": {},
  "source": "pragma solidity ^0.7.0;\r\n\r\ncontract Game {\r\n    address _currentAddress;\r\n    mapping(address => uint256) public currentAddressesInContract;\r\n\r\n    constructor() public payable {\r\n        require(msg.value >= 1 ether, \"Not enough Ether\");\r\n        currentAddressesInContract[msg.sender] = msg.value;\r\n        _currentAddress = msg.sender;\r\n        GuessIfEven(msg.value);\r\n    }\r\n\r\n    event CalculatedWinnings(string test, address winner, uint256 winning);\r\n    event AddressThatLost(address winner, uint256 winning);\r\n\r\n    function GuessIfEven(uint256 stake) public payable {\r\n        if (stake % 2 == 0) {\r\n            CalculateWinning(stake);\r\n        } else {\r\n            emit AddressThatLost(msg.sender, stake);\r\n        }\r\n    }\r\n\r\n    function CalculateWinning(uint256 stake) private {\r\n        uint256 percentage = (stake / _currentAddress.balance) * 100;\r\n        if (percentage > 50) {\r\n            SendRewardToAddress(stake * 1); //TODO: Change this value when amount of people in contract is > 1.\r\n        } else {\r\n            SendRewardToAddress(stake * 1); //TODO: Change this value when amount of people in contract is > 1.\r\n        }\r\n    }\r\n\r\n    function SendRewardToAddress(uint256 winning) private {\r\n        emit CalculatedWinnings(\"test\", msg.sender, winning);\r\n        address payable sendAbleAddress = payable(_currentAddress);\r\n        (bool transferSucceeded, ) = sendAbleAddress.call{value: winning}(\"\");\r\n        require(\r\n            transferSucceeded,\r\n            \"Transfer failed, there was not enough ETH in this contract, you didn't win anything\"\r\n        );\r\n    }\r\n}\r\n",
  "sourcePath": "C:/Users/MutluB/Documents/VSCode Clone/BC3_Mutlu/PD-07/contracts/Game.sol",
  "compiler": {
    "name": "solc",
    "version": "0.6.12+commit.9e61f92b.Emscripten.clang"
  },
  "schemaVersion": "3.3.2",
  "updatedAt": "2020-12-11T15:01:40.651Z",
  "networkType": "ethereum",
  "devdoc": {
    "kind": "dev",
    "methods": {},
    "version": 1
  },
  "userdoc": {
    "kind": "user",
    "methods": {},
    "version": 1
  }
}